{
  "_format": "hh-sol-artifact-1",
  "contractName": "Rebase",
  "sourceName": "contracts/Rebase.sol",
  "abi": [
    {
      "inputs": [
        {
          "internalType": "address",
          "name": "_usdEth",
          "type": "address"
        },
        {
          "internalType": "address",
          "name": "_oracle",
          "type": "address"
        }
      ],
      "stateMutability": "nonpayable",
      "type": "constructor"
    },
    {
      "inputs": [],
      "name": "EnforcedPause",
      "type": "error"
    },
    {
      "inputs": [],
      "name": "ExpectedPause",
      "type": "error"
    },
    {
      "inputs": [
        {
          "internalType": "address",
          "name": "owner",
          "type": "address"
        }
      ],
      "name": "OwnableInvalidOwner",
      "type": "error"
    },
    {
      "inputs": [
        {
          "internalType": "address",
          "name": "account",
          "type": "address"
        }
      ],
      "name": "OwnableUnauthorizedAccount",
      "type": "error"
    },
    {
      "anonymous": false,
      "inputs": [
        {
          "indexed": true,
          "internalType": "address",
          "name": "previousOwner",
          "type": "address"
        },
        {
          "indexed": true,
          "internalType": "address",
          "name": "newOwner",
          "type": "address"
        }
      ],
      "name": "OwnershipTransferred",
      "type": "event"
    },
    {
      "anonymous": false,
      "inputs": [
        {
          "indexed": false,
          "internalType": "address",
          "name": "account",
          "type": "address"
        }
      ],
      "name": "Paused",
      "type": "event"
    },
    {
      "anonymous": false,
      "inputs": [
        {
          "indexed": false,
          "internalType": "address",
          "name": "account",
          "type": "address"
        }
      ],
      "name": "Unpaused",
      "type": "event"
    },
    {
      "anonymous": false,
      "inputs": [
        {
          "indexed": true,
          "internalType": "uint256",
          "name": "timestamp",
          "type": "uint256"
        },
        {
          "indexed": false,
          "internalType": "uint256",
          "name": "oldSupply",
          "type": "uint256"
        },
        {
          "indexed": false,
          "internalType": "uint256",
          "name": "newSupply",
          "type": "uint256"
        }
      ],
      "name": "Updated",
      "type": "event"
    },
    {
      "inputs": [],
      "name": "deposit",
      "outputs": [],
      "stateMutability": "payable",
      "type": "function"
    },
    {
      "inputs": [
        {
          "internalType": "uint256",
          "name": "weisPerPenny",
          "type": "uint256"
        }
      ],
      "name": "getParity",
      "outputs": [
        {
          "internalType": "uint256",
          "name": "",
          "type": "uint256"
        }
      ],
      "stateMutability": "view",
      "type": "function"
    },
    {
      "inputs": [
        {
          "internalType": "uint256",
          "name": "weisPerPenny",
          "type": "uint256"
        }
      ],
      "name": "initialize",
      "outputs": [],
      "stateMutability": "payable",
      "type": "function"
    },
    {
      "inputs": [],
      "name": "lastUpdateWeiRatio",
      "outputs": [
        {
          "internalType": "uint256",
          "name": "",
          "type": "uint256"
        }
      ],
      "stateMutability": "view",
      "type": "function"
    },
    {
      "inputs": [],
      "name": "oracle",
      "outputs": [
        {
          "internalType": "address",
          "name": "",
          "type": "address"
        }
      ],
      "stateMutability": "view",
      "type": "function"
    },
    {
      "inputs": [],
      "name": "owner",
      "outputs": [
        {
          "internalType": "address",
          "name": "",
          "type": "address"
        }
      ],
      "stateMutability": "view",
      "type": "function"
    },
    {
      "inputs": [],
      "name": "pause",
      "outputs": [],
      "stateMutability": "nonpayable",
      "type": "function"
    },
    {
      "inputs": [],
      "name": "paused",
      "outputs": [
        {
          "internalType": "bool",
          "name": "",
          "type": "bool"
        }
      ],
      "stateMutability": "view",
      "type": "function"
    },
    {
      "inputs": [],
      "name": "renounceOwnership",
      "outputs": [],
      "stateMutability": "nonpayable",
      "type": "function"
    },
    {
      "inputs": [
        {
          "internalType": "address",
          "name": "newOracle",
          "type": "address"
        }
      ],
      "name": "setOracleAddress",
      "outputs": [],
      "stateMutability": "nonpayable",
      "type": "function"
    },
    {
      "inputs": [
        {
          "internalType": "uint256",
          "name": "newTolrance",
          "type": "uint256"
        }
      ],
      "name": "setUpdateTolerance",
      "outputs": [],
      "stateMutability": "nonpayable",
      "type": "function"
    },
    {
      "inputs": [
        {
          "internalType": "address",
          "name": "newOwner",
          "type": "address"
        }
      ],
      "name": "transferOwnership",
      "outputs": [],
      "stateMutability": "nonpayable",
      "type": "function"
    },
    {
      "inputs": [],
      "name": "unpause",
      "outputs": [],
      "stateMutability": "nonpayable",
      "type": "function"
    },
    {
      "inputs": [
        {
          "internalType": "uint256",
          "name": "newRatio",
          "type": "uint256"
        }
      ],
      "name": "updateWeiRatio",
      "outputs": [],
      "stateMutability": "nonpayable",
      "type": "function"
    },
    {
      "inputs": [],
      "name": "usdEth",
      "outputs": [
        {
          "internalType": "address",
          "name": "",
          "type": "address"
        }
      ],
      "stateMutability": "view",
      "type": "function"
    },
    {
      "inputs": [
        {
          "internalType": "uint256",
          "name": "amount",
          "type": "uint256"
        }
      ],
      "name": "withdrawInEth",
      "outputs": [],
      "stateMutability": "nonpayable",
      "type": "function"
    },
    {
      "inputs": [
        {
          "internalType": "uint256",
          "name": "amount",
          "type": "uint256"
        }
      ],
      "name": "withdrawInUsd",
      "outputs": [],
      "stateMutability": "nonpayable",
      "type": "function"
    }
  ],
  "bytecode": "0x60a060405260786003553480156200001657600080fd5b50604051620020483803806200204883398181016040528101906200003c919062000376565b33600073ffffffffffffffffffffffffffffffffffffffff168173ffffffffffffffffffffffffffffffffffffffff1603620000b25760006040517f1e4fbdf7000000000000000000000000000000000000000000000000000000008152600401620000a99190620003ce565b60405180910390fd5b620000c3816200016b60201b60201c565b5060008060146101000a81548160ff0219169083151502179055508173ffffffffffffffffffffffffffffffffffffffff1660808173ffffffffffffffffffffffffffffffffffffffff168152505080600160006101000a81548173ffffffffffffffffffffffffffffffffffffffff021916908373ffffffffffffffffffffffffffffffffffffffff160217905550620001636200022f60201b60201c565b5050620003eb565b60008060009054906101000a900473ffffffffffffffffffffffffffffffffffffffff169050816000806101000a81548173ffffffffffffffffffffffffffffffffffffffff021916908373ffffffffffffffffffffffffffffffffffffffff1602179055508173ffffffffffffffffffffffffffffffffffffffff168173ffffffffffffffffffffffffffffffffffffffff167f8be0079c531659141344cd1fd0a4f28419497f9722a3daafe3b4186f6b6457e060405160405180910390a35050565b6200023f620002a460201b60201c565b6001600060146101000a81548160ff0219169083151502179055507f62e78cea01bee320cd4e420270b5ea74000d11b0c9f74754ebdbfc544b05a2586200028b620002ee60201b60201c565b6040516200029a9190620003ce565b60405180910390a1565b620002b4620002f660201b60201c565b15620002ec576040517fd93c066500000000000000000000000000000000000000000000000000000000815260040160405180910390fd5b565b600033905090565b60008060149054906101000a900460ff16905090565b600080fd5b600073ffffffffffffffffffffffffffffffffffffffff82169050919050565b60006200033e8262000311565b9050919050565b620003508162000331565b81146200035c57600080fd5b50565b600081519050620003708162000345565b92915050565b6000806040838503121562000390576200038f6200030c565b5b6000620003a0858286016200035f565b9250506020620003b3858286016200035f565b9150509250929050565b620003c88162000331565b82525050565b6000602082019050620003e56000830184620003bd565b92915050565b608051611c026200044660003960008181610425015281816106f9015281816107f2015281816108e1015281816109c001528181610a9d01528181610c3201528181610d5501528181610f5601526112590152611c026000f3fe6080604052600436106100fe5760003560e01c80637dc0d1d011610095578063bd700fcb11610064578063bd700fcb146102d5578063d0e30db014610300578063ebba56a41461030a578063f2fde38b14610333578063fe4b84df1461035c576100fe565b80637dc0d1d01461023d5780638456cb59146102685780638bbade4e1461027f5780638da5cb5b146102aa576100fe565b80635c975abb116100d15780635c975abb146101a957806362333dcc146101d45780636a023bce146101fd578063715018a614610226576100fe565b80633402995a146101035780633a7b5d9a146101405780633f4ba83a146101695780634c69c00f14610180575b600080fd5b34801561010f57600080fd5b5061012a6004803603810190610125919061155a565b610378565b6040516101379190611596565b60405180910390f35b34801561014c57600080fd5b506101676004803603810190610162919061155a565b6104cd565b005b34801561017557600080fd5b5061017e610522565b005b34801561018c57600080fd5b506101a760048036038101906101a2919061160f565b610534565b005b3480156101b557600080fd5b506101be6105ef565b6040516101cb9190611657565b60405180910390f35b3480156101e057600080fd5b506101fb60048036038101906101f6919061155a565b610605565b005b34801561020957600080fd5b50610224600480360381019061021f919061155a565b610883565b005b34801561023257600080fd5b5061023b610a4f565b005b34801561024957600080fd5b50610252610a63565b60405161025f9190611681565b60405180910390f35b34801561027457600080fd5b5061027d610a89565b005b34801561028b57600080fd5b50610294610a9b565b6040516102a19190611681565b60405180910390f35b3480156102b657600080fd5b506102bf610abf565b6040516102cc9190611681565b60405180910390f35b3480156102e157600080fd5b506102ea610ae8565b6040516102f79190611596565b60405180910390f35b610308610aee565b005b34801561031657600080fd5b50610331600480360381019061032c919061155a565b610cc1565b005b34801561033f57600080fd5b5061035a6004803603810190610355919061160f565b610e40565b005b6103766004803603810190610371919061155a565b610ec6565b005b600080820361041557600160009054906101000a900473ffffffffffffffffffffffffffffffffffffffff1673ffffffffffffffffffffffffffffffffffffffff16633a9d03026040518163ffffffff1660e01b8152600401602060405180830381865afa1580156103ee573d6000803e3d6000fd5b505050506040513d601f19601f8201168201806040525081019061041291906116b1565b91505b8147610421919061173c565b60647f000000000000000000000000000000000000000000000000000000000000000073ffffffffffffffffffffffffffffffffffffffff166318160ddd6040518163ffffffff1660e01b8152600401602060405180830381865afa15801561048e573d6000803e3d6000fd5b505050506040513d601f19601f820116820180604052508101906104b291906116b1565b6104bc919061176d565b6104c6919061173c565b9050919050565b6104d5610ff6565b60008111610518576040517f08c379a000000000000000000000000000000000000000000000000000000000815260040161050f9061180c565b60405180910390fd5b8060038190555050565b61052a610ff6565b61053261107d565b565b61053c610ff6565b600073ffffffffffffffffffffffffffffffffffffffff168173ffffffffffffffffffffffffffffffffffffffff16036105ab576040517f08c379a00000000000000000000000000000000000000000000000000000000081526004016105a290611878565b60405180910390fd5b80600160006101000a81548173ffffffffffffffffffffffffffffffffffffffff021916908373ffffffffffffffffffffffffffffffffffffffff16021790555050565b60008060149054906101000a900460ff16905090565b61060d6110df565b6002544261061b9190611898565b600354101561065f576040517f08c379a000000000000000000000000000000000000000000000000000000000815260040161065690611918565b60405180910390fd5b6000600160009054906101000a900473ffffffffffffffffffffffffffffffffffffffff1673ffffffffffffffffffffffffffffffffffffffff16633a9d03026040518163ffffffff1660e01b8152600401602060405180830381865afa1580156106ce573d6000803e3d6000fd5b505050506040513d601f19601f820116820180604052508101906106f291906116b1565b90506000817f000000000000000000000000000000000000000000000000000000000000000073ffffffffffffffffffffffffffffffffffffffff166370a08231336040518263ffffffff1660e01b81526004016107509190611681565b602060405180830381865afa15801561076d573d6000803e3d6000fd5b505050506040513d601f19601f8201168201806040525081019061079191906116b1565b61079b919061176d565b9050828110156107e0576040517f08c379a00000000000000000000000000000000000000000000000000000000081526004016107d790611984565b60405180910390fd5b600082846107ee919061173c565b90507f000000000000000000000000000000000000000000000000000000000000000073ffffffffffffffffffffffffffffffffffffffff16639dc29fac33836040518363ffffffff1660e01b815260040161084b9291906119a4565b600060405180830381600087803b15801561086557600080fd5b505af1158015610879573d6000803e3d6000fd5b5050505050505050565b61088b6110df565b600254426108999190611898565b60035410156108dd576040517f08c379a00000000000000000000000000000000000000000000000000000000081526004016108d490611918565b60405180910390fd5b60007f000000000000000000000000000000000000000000000000000000000000000073ffffffffffffffffffffffffffffffffffffffff166370a08231336040518263ffffffff1660e01b81526004016109389190611681565b602060405180830381865afa158015610955573d6000803e3d6000fd5b505050506040513d601f19601f8201168201806040525081019061097991906116b1565b9050818110156109be576040517f08c379a00000000000000000000000000000000000000000000000000000000081526004016109b590611984565b60405180910390fd5b7f000000000000000000000000000000000000000000000000000000000000000073ffffffffffffffffffffffffffffffffffffffff16639dc29fac33846040518363ffffffff1660e01b8152600401610a199291906119a4565b600060405180830381600087803b158015610a3357600080fd5b505af1158015610a47573d6000803e3d6000fd5b505050505050565b610a57610ff6565b610a616000611120565b565b600160009054906101000a900473ffffffffffffffffffffffffffffffffffffffff1681565b610a91610ff6565b610a996111e4565b565b7f000000000000000000000000000000000000000000000000000000000000000081565b60008060009054906101000a900473ffffffffffffffffffffffffffffffffffffffff16905090565b60025481565b610af66110df565b60025442610b049190611898565b6003541015610b48576040517f08c379a0000000000000000000000000000000000000000000000000000000008152600401610b3f90611918565b60405180910390fd5b6000600160009054906101000a900473ffffffffffffffffffffffffffffffffffffffff1673ffffffffffffffffffffffffffffffffffffffff16633a9d03026040518163ffffffff1660e01b8152600401602060405180830381865afa158015610bb7573d6000803e3d6000fd5b505050506040513d601f19601f82011682018060405250810190610bdb91906116b1565b905080341015610c20576040517f08c379a0000000000000000000000000000000000000000000000000000000008152600401610c1790611a3f565b60405180910390fd5b60008134610c2e919061173c565b90507f000000000000000000000000000000000000000000000000000000000000000073ffffffffffffffffffffffffffffffffffffffff166340c10f1933836040518363ffffffff1660e01b8152600401610c8b9291906119a4565b600060405180830381600087803b158015610ca557600080fd5b505af1158015610cb9573d6000803e3d6000fd5b505050505050565b600160009054906101000a900473ffffffffffffffffffffffffffffffffffffffff1673ffffffffffffffffffffffffffffffffffffffff163373ffffffffffffffffffffffffffffffffffffffff1614610d51576040517f08c379a0000000000000000000000000000000000000000000000000000000008152600401610d4890611aab565b60405180910390fd5b60007f000000000000000000000000000000000000000000000000000000000000000073ffffffffffffffffffffffffffffffffffffffff166318160ddd6040518163ffffffff1660e01b8152600401602060405180830381865afa158015610dbe573d6000803e3d6000fd5b505050506040513d601f19601f82011682018060405250810190610de291906116b1565b90506000610def83611247565b905060008114610e3b57427f6642e1e496629680de50fd66c266da5b2787a13fe171acf2c954ed368c852bc28385604051610e2b929190611acb565b60405180910390a2426002819055505b505050565b610e48610ff6565b600073ffffffffffffffffffffffffffffffffffffffff168173ffffffffffffffffffffffffffffffffffffffff1603610eba5760006040517f1e4fbdf7000000000000000000000000000000000000000000000000000000008152600401610eb19190611681565b60405180910390fd5b610ec381611120565b50565b610ece610ff6565b60008111610f11576040517f08c379a0000000000000000000000000000000000000000000000000000000008152600401610f0890611b40565b60405180910390fd5b80341015610f54576040517f08c379a0000000000000000000000000000000000000000000000000000000008152600401610f4b90611bac565b60405180910390fd5b7f000000000000000000000000000000000000000000000000000000000000000073ffffffffffffffffffffffffffffffffffffffff166340c10f19338334610f9d919061173c565b6040518363ffffffff1660e01b8152600401610fba9291906119a4565b600060405180830381600087803b158015610fd457600080fd5b505af1158015610fe8573d6000803e3d6000fd5b505050504260028190555050565b610ffe6114d7565b73ffffffffffffffffffffffffffffffffffffffff1661101c610abf565b73ffffffffffffffffffffffffffffffffffffffff161461107b5761103f6114d7565b6040517f118cdaa70000000000000000000000000000000000000000000000000000000081526004016110729190611681565b60405180910390fd5b565b6110856114df565b60008060146101000a81548160ff0219169083151502179055507f5db9ee0a495bf2e6ff9c91a7834c1ba4fdd244a5e8aa4e537bd38aeae4b073aa6110c86114d7565b6040516110d59190611681565b60405180910390a1565b6110e76105ef565b1561111e576040517fd93c066500000000000000000000000000000000000000000000000000000000815260040160405180910390fd5b565b60008060009054906101000a900473ffffffffffffffffffffffffffffffffffffffff169050816000806101000a81548173ffffffffffffffffffffffffffffffffffffffff021916908373ffffffffffffffffffffffffffffffffffffffff1602179055508173ffffffffffffffffffffffffffffffffffffffff168173ffffffffffffffffffffffffffffffffffffffff167f8be0079c531659141344cd1fd0a4f28419497f9722a3daafe3b4186f6b6457e060405160405180910390a35050565b6111ec6110df565b6001600060146101000a81548160ff0219169083151502179055507f62e78cea01bee320cd4e420270b5ea74000d11b0c9f74754ebdbfc544b05a2586112306114d7565b60405161123d9190611681565b60405180910390a1565b60008061125383610378565b905060007f0000000000000000000000000000000000000000000000000000000000000000905060008173ffffffffffffffffffffffffffffffffffffffff166318160ddd6040518163ffffffff1660e01b8152600401602060405180830381865afa1580156112c7573d6000803e3d6000fd5b505050506040513d601f19601f820116820180604052508101906112eb91906116b1565b905060008303611309576112fd6111e4565b600093505050506114d2565b6064830361131c578093505050506114d2565b60648311156113bc578173ffffffffffffffffffffffffffffffffffffffff16639dc29fac611349610abf565b606480876113579190611898565b85611362919061176d565b61136c919061173c565b6040518363ffffffff1660e01b81526004016113899291906119a4565b600060405180830381600087803b1580156113a357600080fd5b505af11580156113b7573d6000803e3d6000fd5b505050505b606483101561145d578173ffffffffffffffffffffffffffffffffffffffff166340c10f196113e9610abf565b60648660646113f89190611898565b85611403919061176d565b61140d919061173c565b6040518363ffffffff1660e01b815260040161142a9291906119a4565b600060405180830381600087803b15801561144457600080fd5b505af1158015611458573d6000803e3d6000fd5b505050505b8173ffffffffffffffffffffffffffffffffffffffff166318160ddd6040518163ffffffff1660e01b8152600401602060405180830381865afa1580156114a8573d6000803e3d6000fd5b505050506040513d601f19601f820116820180604052508101906114cc91906116b1565b93505050505b919050565b600033905090565b6114e76105ef565b61151d576040517f8dfc202b00000000000000000000000000000000000000000000000000000000815260040160405180910390fd5b565b600080fd5b6000819050919050565b61153781611524565b811461154257600080fd5b50565b6000813590506115548161152e565b92915050565b6000602082840312156115705761156f61151f565b5b600061157e84828501611545565b91505092915050565b61159081611524565b82525050565b60006020820190506115ab6000830184611587565b92915050565b600073ffffffffffffffffffffffffffffffffffffffff82169050919050565b60006115dc826115b1565b9050919050565b6115ec816115d1565b81146115f757600080fd5b50565b600081359050611609816115e3565b92915050565b6000602082840312156116255761162461151f565b5b6000611633848285016115fa565b91505092915050565b60008115159050919050565b6116518161163c565b82525050565b600060208201905061166c6000830184611648565b92915050565b61167b816115d1565b82525050565b60006020820190506116966000830184611672565b92915050565b6000815190506116ab8161152e565b92915050565b6000602082840312156116c7576116c661151f565b5b60006116d58482850161169c565b91505092915050565b7f4e487b7100000000000000000000000000000000000000000000000000000000600052601260045260246000fd5b7f4e487b7100000000000000000000000000000000000000000000000000000000600052601160045260246000fd5b600061174782611524565b915061175283611524565b925082611762576117616116de565b5b828204905092915050565b600061177882611524565b915061178383611524565b925082820261179181611524565b915082820484148315176117a8576117a761170d565b5b5092915050565b600082825260208201905092915050565b7f496e76616c6964206e6577546f6c72616e636500000000000000000000000000600082015250565b60006117f66013836117af565b9150611801826117c0565b602082019050919050565b60006020820190508181036000830152611825816117e9565b9050919050565b7f496e76616c6964206e65774f7261636c65000000000000000000000000000000600082015250565b60006118626011836117af565b915061186d8261182c565b602082019050919050565b6000602082019050818103600083015261189181611855565b9050919050565b60006118a382611524565b91506118ae83611524565b92508282039050818111156118c6576118c561170d565b5b92915050565b7f4f75746461746564000000000000000000000000000000000000000000000000600082015250565b60006119026008836117af565b915061190d826118cc565b602082019050919050565b60006020820190508181036000830152611931816118f5565b9050919050565b7f4e6f7420656e6f7567682062616c616e63650000000000000000000000000000600082015250565b600061196e6012836117af565b915061197982611938565b602082019050919050565b6000602082019050818103600083015261199d81611961565b9050919050565b60006040820190506119b96000830185611672565b6119c66020830184611587565b9392505050565b7f57697468207468697320616d6f756e7420796f752063616e277420627579206160008201527f6e79205553442063656e74730000000000000000000000000000000000000000602082015250565b6000611a29602c836117af565b9150611a34826119cd565b604082019050919050565b60006020820190508181036000830152611a5881611a1c565b9050919050565b7f4e6f7420617574686f72697a6564000000000000000000000000000000000000600082015250565b6000611a95600e836117af565b9150611aa082611a5f565b602082019050919050565b60006020820190508181036000830152611ac481611a88565b9050919050565b6000604082019050611ae06000830185611587565b611aed6020830184611587565b9392505050565b7f496e76616c6964207765697350657250656e6e79000000000000000000000000600082015250565b6000611b2a6014836117af565b9150611b3582611af4565b602082019050919050565b60006020820190508181036000830152611b5981611b1d565b9050919050565b7f496e76616c6964206d73672e76616c7565000000000000000000000000000000600082015250565b6000611b966011836117af565b9150611ba182611b60565b602082019050919050565b60006020820190508181036000830152611bc581611b89565b905091905056fea26469706673582212200518fde67375c765ebea443b0efe4eb639a7c5e898462d4026b61f4df60d3f3364736f6c63430008140033",
  "linkReferences": {},
  "deployedLinkReferences": {}
}