{
  "_format": "hh-sol-artifact-1",
  "contractName": "UsdEth",
  "sourceName": "contracts/UsdEth.sol",
  "abi": [
    {
      "inputs": [],
      "stateMutability": "nonpayable",
      "type": "constructor"
    },
    {
      "inputs": [
        {
          "internalType": "address",
          "name": "spender",
          "type": "address"
        },
        {
          "internalType": "uint256",
          "name": "allowance",
          "type": "uint256"
        },
        {
          "internalType": "uint256",
          "name": "needed",
          "type": "uint256"
        }
      ],
      "name": "ERC20InsufficientAllowance",
      "type": "error"
    },
    {
      "inputs": [
        {
          "internalType": "address",
          "name": "sender",
          "type": "address"
        },
        {
          "internalType": "uint256",
          "name": "balance",
          "type": "uint256"
        },
        {
          "internalType": "uint256",
          "name": "needed",
          "type": "uint256"
        }
      ],
      "name": "ERC20InsufficientBalance",
      "type": "error"
    },
    {
      "inputs": [
        {
          "internalType": "address",
          "name": "approver",
          "type": "address"
        }
      ],
      "name": "ERC20InvalidApprover",
      "type": "error"
    },
    {
      "inputs": [
        {
          "internalType": "address",
          "name": "receiver",
          "type": "address"
        }
      ],
      "name": "ERC20InvalidReceiver",
      "type": "error"
    },
    {
      "inputs": [
        {
          "internalType": "address",
          "name": "sender",
          "type": "address"
        }
      ],
      "name": "ERC20InvalidSender",
      "type": "error"
    },
    {
      "inputs": [
        {
          "internalType": "address",
          "name": "spender",
          "type": "address"
        }
      ],
      "name": "ERC20InvalidSpender",
      "type": "error"
    },
    {
      "inputs": [
        {
          "internalType": "address",
          "name": "owner",
          "type": "address"
        }
      ],
      "name": "OwnableInvalidOwner",
      "type": "error"
    },
    {
      "inputs": [
        {
          "internalType": "address",
          "name": "account",
          "type": "address"
        }
      ],
      "name": "OwnableUnauthorizedAccount",
      "type": "error"
    },
    {
      "anonymous": false,
      "inputs": [
        {
          "indexed": true,
          "internalType": "address",
          "name": "owner",
          "type": "address"
        },
        {
          "indexed": true,
          "internalType": "address",
          "name": "spender",
          "type": "address"
        },
        {
          "indexed": false,
          "internalType": "uint256",
          "name": "value",
          "type": "uint256"
        }
      ],
      "name": "Approval",
      "type": "event"
    },
    {
      "anonymous": false,
      "inputs": [
        {
          "indexed": true,
          "internalType": "address",
          "name": "previousOwner",
          "type": "address"
        },
        {
          "indexed": true,
          "internalType": "address",
          "name": "newOwner",
          "type": "address"
        }
      ],
      "name": "OwnershipTransferred",
      "type": "event"
    },
    {
      "anonymous": false,
      "inputs": [
        {
          "indexed": true,
          "internalType": "address",
          "name": "from",
          "type": "address"
        },
        {
          "indexed": true,
          "internalType": "address",
          "name": "to",
          "type": "address"
        },
        {
          "indexed": false,
          "internalType": "uint256",
          "name": "value",
          "type": "uint256"
        }
      ],
      "name": "Transfer",
      "type": "event"
    },
    {
      "inputs": [
        {
          "internalType": "address",
          "name": "owner",
          "type": "address"
        },
        {
          "internalType": "address",
          "name": "spender",
          "type": "address"
        }
      ],
      "name": "allowance",
      "outputs": [
        {
          "internalType": "uint256",
          "name": "",
          "type": "uint256"
        }
      ],
      "stateMutability": "view",
      "type": "function"
    },
    {
      "inputs": [
        {
          "internalType": "address",
          "name": "spender",
          "type": "address"
        },
        {
          "internalType": "uint256",
          "name": "value",
          "type": "uint256"
        }
      ],
      "name": "approve",
      "outputs": [
        {
          "internalType": "bool",
          "name": "",
          "type": "bool"
        }
      ],
      "stateMutability": "nonpayable",
      "type": "function"
    },
    {
      "inputs": [
        {
          "internalType": "address",
          "name": "account",
          "type": "address"
        }
      ],
      "name": "balanceOf",
      "outputs": [
        {
          "internalType": "uint256",
          "name": "",
          "type": "uint256"
        }
      ],
      "stateMutability": "view",
      "type": "function"
    },
    {
      "inputs": [
        {
          "internalType": "uint256",
          "name": "value",
          "type": "uint256"
        }
      ],
      "name": "burn",
      "outputs": [],
      "stateMutability": "nonpayable",
      "type": "function"
    },
    {
      "inputs": [
        {
          "internalType": "address",
          "name": "from",
          "type": "address"
        },
        {
          "internalType": "uint256",
          "name": "amount",
          "type": "uint256"
        }
      ],
      "name": "burn",
      "outputs": [],
      "stateMutability": "nonpayable",
      "type": "function"
    },
    {
      "inputs": [
        {
          "internalType": "address",
          "name": "account",
          "type": "address"
        },
        {
          "internalType": "uint256",
          "name": "value",
          "type": "uint256"
        }
      ],
      "name": "burnFrom",
      "outputs": [],
      "stateMutability": "nonpayable",
      "type": "function"
    },
    {
      "inputs": [],
      "name": "decimals",
      "outputs": [
        {
          "internalType": "uint8",
          "name": "",
          "type": "uint8"
        }
      ],
      "stateMutability": "view",
      "type": "function"
    },
    {
      "inputs": [
        {
          "internalType": "address",
          "name": "to",
          "type": "address"
        },
        {
          "internalType": "uint256",
          "name": "amount",
          "type": "uint256"
        }
      ],
      "name": "mint",
      "outputs": [],
      "stateMutability": "nonpayable",
      "type": "function"
    },
    {
      "inputs": [],
      "name": "name",
      "outputs": [
        {
          "internalType": "string",
          "name": "",
          "type": "string"
        }
      ],
      "stateMutability": "view",
      "type": "function"
    },
    {
      "inputs": [],
      "name": "owner",
      "outputs": [
        {
          "internalType": "address",
          "name": "",
          "type": "address"
        }
      ],
      "stateMutability": "view",
      "type": "function"
    },
    {
      "inputs": [],
      "name": "renounceOwnership",
      "outputs": [],
      "stateMutability": "nonpayable",
      "type": "function"
    },
    {
      "inputs": [
        {
          "internalType": "address",
          "name": "_rebaseAddress",
          "type": "address"
        }
      ],
      "name": "setRebaseAddress",
      "outputs": [],
      "stateMutability": "nonpayable",
      "type": "function"
    },
    {
      "inputs": [],
      "name": "symbol",
      "outputs": [
        {
          "internalType": "string",
          "name": "",
          "type": "string"
        }
      ],
      "stateMutability": "view",
      "type": "function"
    },
    {
      "inputs": [],
      "name": "totalSupply",
      "outputs": [
        {
          "internalType": "uint256",
          "name": "",
          "type": "uint256"
        }
      ],
      "stateMutability": "view",
      "type": "function"
    },
    {
      "inputs": [
        {
          "internalType": "address",
          "name": "to",
          "type": "address"
        },
        {
          "internalType": "uint256",
          "name": "value",
          "type": "uint256"
        }
      ],
      "name": "transfer",
      "outputs": [
        {
          "internalType": "bool",
          "name": "",
          "type": "bool"
        }
      ],
      "stateMutability": "nonpayable",
      "type": "function"
    },
    {
      "inputs": [
        {
          "internalType": "address",
          "name": "from",
          "type": "address"
        },
        {
          "internalType": "address",
          "name": "to",
          "type": "address"
        },
        {
          "internalType": "uint256",
          "name": "value",
          "type": "uint256"
        }
      ],
      "name": "transferFrom",
      "outputs": [
        {
          "internalType": "bool",
          "name": "",
          "type": "bool"
        }
      ],
      "stateMutability": "nonpayable",
      "type": "function"
    },
    {
      "inputs": [
        {
          "internalType": "address",
          "name": "newOwner",
          "type": "address"
        }
      ],
      "name": "transferOwnership",
      "outputs": [],
      "stateMutability": "nonpayable",
      "type": "function"
    }
  ],
  "bytecode": "0x60806040523480156200001157600080fd5b50336040518060400160405280600781526020017f5553442f455448000000000000000000000000000000000000000000000000008152506040518060400160405280600781526020017f5553442f45544800000000000000000000000000000000000000000000000000815250816003908162000090919062000472565b508060049081620000a2919062000472565b505050600073ffffffffffffffffffffffffffffffffffffffff168173ffffffffffffffffffffffffffffffffffffffff16036200011a5760006040517f1e4fbdf70000000000000000000000000000000000000000000000000000000081526004016200011191906200059e565b60405180910390fd5b6200012b816200013260201b60201c565b50620005bb565b6000600560009054906101000a900473ffffffffffffffffffffffffffffffffffffffff16905081600560006101000a81548173ffffffffffffffffffffffffffffffffffffffff021916908373ffffffffffffffffffffffffffffffffffffffff1602179055508173ffffffffffffffffffffffffffffffffffffffff168173ffffffffffffffffffffffffffffffffffffffff167f8be0079c531659141344cd1fd0a4f28419497f9722a3daafe3b4186f6b6457e060405160405180910390a35050565b600081519050919050565b7f4e487b7100000000000000000000000000000000000000000000000000000000600052604160045260246000fd5b7f4e487b7100000000000000000000000000000000000000000000000000000000600052602260045260246000fd5b600060028204905060018216806200027a57607f821691505b60208210810362000290576200028f62000232565b5b50919050565b60008190508160005260206000209050919050565b60006020601f8301049050919050565b600082821b905092915050565b600060088302620002fa7fffffffffffffffffffffffffffffffffffffffffffffffffffffffffffffffff82620002bb565b620003068683620002bb565b95508019841693508086168417925050509392505050565b6000819050919050565b6000819050919050565b6000620003536200034d62000347846200031e565b62000328565b6200031e565b9050919050565b6000819050919050565b6200036f8362000332565b620003876200037e826200035a565b848454620002c8565b825550505050565b600090565b6200039e6200038f565b620003ab81848462000364565b505050565b5b81811015620003d357620003c760008262000394565b600181019050620003b1565b5050565b601f8211156200042257620003ec8162000296565b620003f784620002ab565b8101602085101562000407578190505b6200041f6200041685620002ab565b830182620003b0565b50505b505050565b600082821c905092915050565b6000620004476000198460080262000427565b1980831691505092915050565b600062000462838362000434565b9150826002028217905092915050565b6200047d82620001f8565b67ffffffffffffffff81111562000499576200049862000203565b5b620004a5825462000261565b620004b2828285620003d7565b600060209050601f831160018114620004ea5760008415620004d5578287015190505b620004e1858262000454565b86555062000551565b601f198416620004fa8662000296565b60005b828110156200052457848901518255600182019150602085019450602081019050620004fd565b8683101562000544578489015162000540601f89168262000434565b8355505b6001600288020188555050505b505050505050565b600073ffffffffffffffffffffffffffffffffffffffff82169050919050565b6000620005868262000559565b9050919050565b620005988162000579565b82525050565b6000602082019050620005b560008301846200058d565b92915050565b61158180620005cb6000396000f3fe608060405234801561001057600080fd5b506004361061010b5760003560e01c806370a08231116100a257806395d89b411161007157806395d89b41146102925780639dc29fac146102b0578063a9059cbb146102cc578063dd62ed3e146102fc578063f2fde38b1461032c5761010b565b806370a082311461021e578063715018a61461024e57806379cc6790146102585780638da5cb5b146102745761010b565b806323b872dd116100de57806323b872dd14610198578063313ce567146101c857806340c10f19146101e657806342966c68146102025761010b565b806306fdde0314610110578063095ea7b31461012e5780630ad1108d1461015e57806318160ddd1461017a575b600080fd5b610118610348565b604051610125919061113c565b60405180910390f35b610148600480360381019061014391906111f7565b6103da565b6040516101559190611252565b60405180910390f35b6101786004803603810190610173919061126d565b6103fd565b005b610182610449565b60405161018f91906112a9565b60405180910390f35b6101b260048036038101906101ad91906112c4565b610453565b6040516101bf9190611252565b60405180910390f35b6101d0610482565b6040516101dd9190611333565b60405180910390f35b61020060048036038101906101fb91906111f7565b61048b565b005b61021c6004803603810190610217919061134e565b610566565b005b6102386004803603810190610233919061126d565b61057a565b60405161024591906112a9565b60405180910390f35b6102566105c2565b005b610272600480360381019061026d91906111f7565b6105d6565b005b61027c6105f6565b604051610289919061138a565b60405180910390f35b61029a610620565b6040516102a7919061113c565b60405180910390f35b6102ca60048036038101906102c591906111f7565b6106b2565b005b6102e660048036038101906102e191906111f7565b61078d565b6040516102f39190611252565b60405180910390f35b610316600480360381019061031191906113a5565b6107b0565b60405161032391906112a9565b60405180910390f35b6103466004803603810190610341919061126d565b610837565b005b60606003805461035790611414565b80601f016020809104026020016040519081016040528092919081815260200182805461038390611414565b80156103d05780601f106103a5576101008083540402835291602001916103d0565b820191906000526020600020905b8154815290600101906020018083116103b357829003601f168201915b5050505050905090565b6000806103e56108bd565b90506103f28185856108c5565b600191505092915050565b6104056108d7565b80600660006101000a81548173ffffffffffffffffffffffffffffffffffffffff021916908373ffffffffffffffffffffffffffffffffffffffff16021790555050565b6000600254905090565b60008061045e6108bd565b905061046b85828561095e565b6104768585856109f2565b60019150509392505050565b60006002905090565b6104936105f6565b73ffffffffffffffffffffffffffffffffffffffff163373ffffffffffffffffffffffffffffffffffffffff1614806105195750600660009054906101000a900473ffffffffffffffffffffffffffffffffffffffff1673ffffffffffffffffffffffffffffffffffffffff163373ffffffffffffffffffffffffffffffffffffffff16145b610558576040517f08c379a000000000000000000000000000000000000000000000000000000000815260040161054f90611491565b60405180910390fd5b6105628282610ae6565b5050565b6105776105716108bd565b82610b68565b50565b60008060008373ffffffffffffffffffffffffffffffffffffffff1673ffffffffffffffffffffffffffffffffffffffff168152602001908152602001600020549050919050565b6105ca6108d7565b6105d46000610bea565b565b6105e8826105e26108bd565b8361095e565b6105f28282610b68565b5050565b6000600560009054906101000a900473ffffffffffffffffffffffffffffffffffffffff16905090565b60606004805461062f90611414565b80601f016020809104026020016040519081016040528092919081815260200182805461065b90611414565b80156106a85780601f1061067d576101008083540402835291602001916106a8565b820191906000526020600020905b81548152906001019060200180831161068b57829003601f168201915b5050505050905090565b6106ba6105f6565b73ffffffffffffffffffffffffffffffffffffffff163373ffffffffffffffffffffffffffffffffffffffff1614806107405750600660009054906101000a900473ffffffffffffffffffffffffffffffffffffffff1673ffffffffffffffffffffffffffffffffffffffff163373ffffffffffffffffffffffffffffffffffffffff16145b61077f576040517f08c379a000000000000000000000000000000000000000000000000000000000815260040161077690611491565b60405180910390fd5b6107898282610b68565b5050565b6000806107986108bd565b90506107a58185856109f2565b600191505092915050565b6000600160008473ffffffffffffffffffffffffffffffffffffffff1673ffffffffffffffffffffffffffffffffffffffff16815260200190815260200160002060008373ffffffffffffffffffffffffffffffffffffffff1673ffffffffffffffffffffffffffffffffffffffff16815260200190815260200160002054905092915050565b61083f6108d7565b600073ffffffffffffffffffffffffffffffffffffffff168173ffffffffffffffffffffffffffffffffffffffff16036108b15760006040517f1e4fbdf70000000000000000000000000000000000000000000000000000000081526004016108a8919061138a565b60405180910390fd5b6108ba81610bea565b50565b600033905090565b6108d28383836001610cb0565b505050565b6108df6108bd565b73ffffffffffffffffffffffffffffffffffffffff166108fd6105f6565b73ffffffffffffffffffffffffffffffffffffffff161461095c576109206108bd565b6040517f118cdaa7000000000000000000000000000000000000000000000000000000008152600401610953919061138a565b60405180910390fd5b565b600061096a84846107b0565b90507fffffffffffffffffffffffffffffffffffffffffffffffffffffffffffffffff81146109ec57818110156109dc578281836040517ffb8f41b20000000000000000000000000000000000000000000000000000000081526004016109d3939291906114b1565b60405180910390fd5b6109eb84848484036000610cb0565b5b50505050565b600073ffffffffffffffffffffffffffffffffffffffff168373ffffffffffffffffffffffffffffffffffffffff1603610a645760006040517f96c6fd1e000000000000000000000000000000000000000000000000000000008152600401610a5b919061138a565b60405180910390fd5b600073ffffffffffffffffffffffffffffffffffffffff168273ffffffffffffffffffffffffffffffffffffffff1603610ad65760006040517fec442f05000000000000000000000000000000000000000000000000000000008152600401610acd919061138a565b60405180910390fd5b610ae1838383610e87565b505050565b600073ffffffffffffffffffffffffffffffffffffffff168273ffffffffffffffffffffffffffffffffffffffff1603610b585760006040517fec442f05000000000000000000000000000000000000000000000000000000008152600401610b4f919061138a565b60405180910390fd5b610b6460008383610e87565b5050565b600073ffffffffffffffffffffffffffffffffffffffff168273ffffffffffffffffffffffffffffffffffffffff1603610bda5760006040517f96c6fd1e000000000000000000000000000000000000000000000000000000008152600401610bd1919061138a565b60405180910390fd5b610be682600083610e87565b5050565b6000600560009054906101000a900473ffffffffffffffffffffffffffffffffffffffff16905081600560006101000a81548173ffffffffffffffffffffffffffffffffffffffff021916908373ffffffffffffffffffffffffffffffffffffffff1602179055508173ffffffffffffffffffffffffffffffffffffffff168173ffffffffffffffffffffffffffffffffffffffff167f8be0079c531659141344cd1fd0a4f28419497f9722a3daafe3b4186f6b6457e060405160405180910390a35050565b600073ffffffffffffffffffffffffffffffffffffffff168473ffffffffffffffffffffffffffffffffffffffff1603610d225760006040517fe602df05000000000000000000000000000000000000000000000000000000008152600401610d19919061138a565b60405180910390fd5b600073ffffffffffffffffffffffffffffffffffffffff168373ffffffffffffffffffffffffffffffffffffffff1603610d945760006040517f94280d62000000000000000000000000000000000000000000000000000000008152600401610d8b919061138a565b60405180910390fd5b81600160008673ffffffffffffffffffffffffffffffffffffffff1673ffffffffffffffffffffffffffffffffffffffff16815260200190815260200160002060008573ffffffffffffffffffffffffffffffffffffffff1673ffffffffffffffffffffffffffffffffffffffff168152602001908152602001600020819055508015610e81578273ffffffffffffffffffffffffffffffffffffffff168473ffffffffffffffffffffffffffffffffffffffff167f8c5be1e5ebec7d5bd14f71427d1e84f3dd0314c0f7b2291e5b200ac8c7c3b92584604051610e7891906112a9565b60405180910390a35b50505050565b600073ffffffffffffffffffffffffffffffffffffffff168373ffffffffffffffffffffffffffffffffffffffff1603610ed9578060026000828254610ecd9190611517565b92505081905550610fac565b60008060008573ffffffffffffffffffffffffffffffffffffffff1673ffffffffffffffffffffffffffffffffffffffff16815260200190815260200160002054905081811015610f65578381836040517fe450d38c000000000000000000000000000000000000000000000000000000008152600401610f5c939291906114b1565b60405180910390fd5b8181036000808673ffffffffffffffffffffffffffffffffffffffff1673ffffffffffffffffffffffffffffffffffffffff16815260200190815260200160002081905550505b600073ffffffffffffffffffffffffffffffffffffffff168273ffffffffffffffffffffffffffffffffffffffff1603610ff55780600260008282540392505081905550611042565b806000808473ffffffffffffffffffffffffffffffffffffffff1673ffffffffffffffffffffffffffffffffffffffff168152602001908152602001600020600082825401925050819055505b8173ffffffffffffffffffffffffffffffffffffffff168373ffffffffffffffffffffffffffffffffffffffff167fddf252ad1be2c89b69c2b068fc378daa952ba7f163c4a11628f55a4df523b3ef8360405161109f91906112a9565b60405180910390a3505050565b600081519050919050565b600082825260208201905092915050565b60005b838110156110e65780820151818401526020810190506110cb565b60008484015250505050565b6000601f19601f8301169050919050565b600061110e826110ac565b61111881856110b7565b93506111288185602086016110c8565b611131816110f2565b840191505092915050565b600060208201905081810360008301526111568184611103565b905092915050565b600080fd5b600073ffffffffffffffffffffffffffffffffffffffff82169050919050565b600061118e82611163565b9050919050565b61119e81611183565b81146111a957600080fd5b50565b6000813590506111bb81611195565b92915050565b6000819050919050565b6111d4816111c1565b81146111df57600080fd5b50565b6000813590506111f1816111cb565b92915050565b6000806040838503121561120e5761120d61115e565b5b600061121c858286016111ac565b925050602061122d858286016111e2565b9150509250929050565b60008115159050919050565b61124c81611237565b82525050565b60006020820190506112676000830184611243565b92915050565b6000602082840312156112835761128261115e565b5b6000611291848285016111ac565b91505092915050565b6112a3816111c1565b82525050565b60006020820190506112be600083018461129a565b92915050565b6000806000606084860312156112dd576112dc61115e565b5b60006112eb868287016111ac565b93505060206112fc868287016111ac565b925050604061130d868287016111e2565b9150509250925092565b600060ff82169050919050565b61132d81611317565b82525050565b60006020820190506113486000830184611324565b92915050565b6000602082840312156113645761136361115e565b5b6000611372848285016111e2565b91505092915050565b61138481611183565b82525050565b600060208201905061139f600083018461137b565b92915050565b600080604083850312156113bc576113bb61115e565b5b60006113ca858286016111ac565b92505060206113db858286016111ac565b9150509250929050565b7f4e487b7100000000000000000000000000000000000000000000000000000000600052602260045260246000fd5b6000600282049050600182168061142c57607f821691505b60208210810361143f5761143e6113e5565b5b50919050565b7f4e6f7420617574686f72697a6564000000000000000000000000000000000000600082015250565b600061147b600e836110b7565b915061148682611445565b602082019050919050565b600060208201905081810360008301526114aa8161146e565b9050919050565b60006060820190506114c6600083018661137b565b6114d3602083018561129a565b6114e0604083018461129a565b949350505050565b7f4e487b7100000000000000000000000000000000000000000000000000000000600052601160045260246000fd5b6000611522826111c1565b915061152d836111c1565b9250828201905080821115611545576115446114e8565b5b9291505056fea2646970667358221220febe493544715bf0647f98c34913e6485a7d8bc4d73e5524a8739a637484b27364736f6c63430008140033",
  "linkReferences": {},
  "deployedLinkReferences": {}
}