{
  "_format": "hh-sol-artifact-1",
  "contractName": "WeiUsdOracle",
  "sourceName": "contracts/WeiUsdOracle.sol",
  "abi": [
    {
      "inputs": [
        {
          "internalType": "uint256",
          "name": "ethPriceInPenny",
          "type": "uint256"
        }
      ],
      "stateMutability": "nonpayable",
      "type": "constructor"
    },
    {
      "inputs": [
        {
          "internalType": "address",
          "name": "owner",
          "type": "address"
        }
      ],
      "name": "OwnableInvalidOwner",
      "type": "error"
    },
    {
      "inputs": [
        {
          "internalType": "address",
          "name": "account",
          "type": "address"
        }
      ],
      "name": "OwnableUnauthorizedAccount",
      "type": "error"
    },
    {
      "anonymous": false,
      "inputs": [
        {
          "indexed": false,
          "internalType": "address[]",
          "name": "subscribers",
          "type": "address[]"
        }
      ],
      "name": "AllUpdated",
      "type": "event"
    },
    {
      "anonymous": false,
      "inputs": [
        {
          "indexed": true,
          "internalType": "address",
          "name": "previousOwner",
          "type": "address"
        },
        {
          "indexed": true,
          "internalType": "address",
          "name": "newOwner",
          "type": "address"
        }
      ],
      "name": "OwnershipTransferred",
      "type": "event"
    },
    {
      "anonymous": false,
      "inputs": [
        {
          "indexed": true,
          "internalType": "address",
          "name": "subscriber",
          "type": "address"
        }
      ],
      "name": "Subscribed",
      "type": "event"
    },
    {
      "anonymous": false,
      "inputs": [
        {
          "indexed": true,
          "internalType": "address",
          "name": "subscriber",
          "type": "address"
        }
      ],
      "name": "Unsubscribed",
      "type": "event"
    },
    {
      "inputs": [],
      "name": "getWeiRatio",
      "outputs": [
        {
          "internalType": "uint256",
          "name": "",
          "type": "uint256"
        }
      ],
      "stateMutability": "view",
      "type": "function"
    },
    {
      "inputs": [],
      "name": "lastUpdateWeiRatio",
      "outputs": [
        {
          "internalType": "uint256",
          "name": "",
          "type": "uint256"
        }
      ],
      "stateMutability": "view",
      "type": "function"
    },
    {
      "inputs": [],
      "name": "owner",
      "outputs": [
        {
          "internalType": "address",
          "name": "",
          "type": "address"
        }
      ],
      "stateMutability": "view",
      "type": "function"
    },
    {
      "inputs": [],
      "name": "renounceOwnership",
      "outputs": [],
      "stateMutability": "nonpayable",
      "type": "function"
    },
    {
      "inputs": [
        {
          "internalType": "uint256",
          "name": "ethPriceInPenny",
          "type": "uint256"
        }
      ],
      "name": "setEthPrice",
      "outputs": [],
      "stateMutability": "nonpayable",
      "type": "function"
    },
    {
      "inputs": [
        {
          "internalType": "address",
          "name": "subscriber",
          "type": "address"
        }
      ],
      "name": "subscribe",
      "outputs": [],
      "stateMutability": "nonpayable",
      "type": "function"
    },
    {
      "inputs": [
        {
          "internalType": "uint256",
          "name": "",
          "type": "uint256"
        }
      ],
      "name": "subscribers",
      "outputs": [
        {
          "internalType": "address",
          "name": "",
          "type": "address"
        }
      ],
      "stateMutability": "view",
      "type": "function"
    },
    {
      "inputs": [
        {
          "internalType": "address",
          "name": "newOwner",
          "type": "address"
        }
      ],
      "name": "transferOwnership",
      "outputs": [],
      "stateMutability": "nonpayable",
      "type": "function"
    },
    {
      "inputs": [
        {
          "internalType": "address",
          "name": "subscriber",
          "type": "address"
        }
      ],
      "name": "unsubscribe",
      "outputs": [],
      "stateMutability": "nonpayable",
      "type": "function"
    }
  ],
  "bytecode": "0x60806040523480156200001157600080fd5b50604051620013c1380380620013c1833981810160405281019062000037919062000207565b33600073ffffffffffffffffffffffffffffffffffffffff168173ffffffffffffffffffffffffffffffffffffffff1603620000ad5760006040517f1e4fbdf7000000000000000000000000000000000000000000000000000000008152600401620000a491906200027e565b60405180910390fd5b620000be81620000e460201b60201c565b50620000d081620001a860201b60201c565b600181905550426002819055505062000302565b60008060009054906101000a900473ffffffffffffffffffffffffffffffffffffffff169050816000806101000a81548173ffffffffffffffffffffffffffffffffffffffff021916908373ffffffffffffffffffffffffffffffffffffffff1602179055508173ffffffffffffffffffffffffffffffffffffffff168173ffffffffffffffffffffffffffffffffffffffff167f8be0079c531659141344cd1fd0a4f28419497f9722a3daafe3b4186f6b6457e060405160405180910390a35050565b600081670de0b6b3a7640000620001c09190620002ca565b9050919050565b600080fd5b6000819050919050565b620001e181620001cc565b8114620001ed57600080fd5b50565b6000815190506200020181620001d6565b92915050565b60006020828403121562000220576200021f620001c7565b5b60006200023084828501620001f0565b91505092915050565b600073ffffffffffffffffffffffffffffffffffffffff82169050919050565b6000620002668262000239565b9050919050565b620002788162000259565b82525050565b60006020820190506200029560008301846200026d565b92915050565b7f4e487b7100000000000000000000000000000000000000000000000000000000600052601260045260246000fd5b6000620002d782620001cc565b9150620002e483620001cc565b925082620002f757620002f66200029b565b5b828204905092915050565b6110af80620003126000396000f3fe608060405234801561001057600080fd5b50600436106100925760003560e01c8063715018a611610066578063715018a61461011d5780637262561c146101275780638da5cb5b14610143578063bd700fcb14610161578063f2fde38b1461017f57610092565b80629f9262146100975780633a9d0302146100b357806341a7726a146100d157806359221a68146100ed575b600080fd5b6100b160048036038101906100ac9190610af4565b61019b565b005b6100bb6103cb565b6040516100c89190610b30565b60405180910390f35b6100eb60048036038101906100e69190610ba9565b6103d5565b005b61010760048036038101906101029190610af4565b61060e565b6040516101149190610be5565b60405180910390f35b61012561064d565b005b610141600480360381019061013c9190610ba9565b610661565b005b61014b610894565b6040516101589190610be5565b60405180910390f35b6101696108bd565b6040516101769190610b30565b60405180910390f35b61019960048036038101906101949190610ba9565b6108c3565b005b6101a3610949565b600081116101e6576040517f08c379a00000000000000000000000000000000000000000000000000000000081526004016101dd90610c5d565b60405180910390fd5b6101ef816109d0565b60018190555060006001541161023a576040517f08c379a000000000000000000000000000000000000000000000000000000000815260040161023190610cc9565b60405180910390fd5b426002819055506000805b60038054905081101561038757600073ffffffffffffffffffffffffffffffffffffffff166003828154811061027e5761027d610ce9565b5b9060005260206000200160009054906101000a900473ffffffffffffffffffffffffffffffffffffffff1673ffffffffffffffffffffffffffffffffffffffff161461037457600381815481106102d8576102d7610ce9565b5b9060005260206000200160009054906101000a900473ffffffffffffffffffffffffffffffffffffffff1673ffffffffffffffffffffffffffffffffffffffff1663ebba56a46001546040518263ffffffff1660e01b815260040161033d9190610b30565b600060405180830381600087803b15801561035757600080fd5b505af115801561036b573d6000803e3d6000fd5b50505050600191505b808061037f90610d47565b915050610245565b5080156103c7577f16021d6e2bead68861d6649a1d5d1b41bffb1d77e2ca4461a1804bf00cb75ef960036040516103be9190610eb3565b60405180910390a15b5050565b6000600154905090565b6103dd610949565b600073ffffffffffffffffffffffffffffffffffffffff168173ffffffffffffffffffffffffffffffffffffffff160361044c576040517f08c379a000000000000000000000000000000000000000000000000000000000815260040161044390610f21565b60405180910390fd5b600460008273ffffffffffffffffffffffffffffffffffffffff1673ffffffffffffffffffffffffffffffffffffffff16815260200190815260200160002060000160009054906101000a900460ff16156104dc576040517f08c379a00000000000000000000000000000000000000000000000000000000081526004016104d390610f8d565b60405180910390fd5b8073ffffffffffffffffffffffffffffffffffffffff167fa88fac53823b534c72d6958345adbe6801e072750d83b490d52ebbac51473a6360405160405180910390a26040518060400160405280600115158152602001600380549050815250600460008373ffffffffffffffffffffffffffffffffffffffff1673ffffffffffffffffffffffffffffffffffffffff16815260200190815260200160002060008201518160000160006101000a81548160ff021916908315150217905550602082015181600101559050506003819080600181540180825580915050600190039060005260206000200160009091909190916101000a81548173ffffffffffffffffffffffffffffffffffffffff021916908373ffffffffffffffffffffffffffffffffffffffff16021790555050565b6003818154811061061e57600080fd5b906000526020600020016000915054906101000a900473ffffffffffffffffffffffffffffffffffffffff1681565b610655610949565b61065f60006109ed565b565b610669610949565b600073ffffffffffffffffffffffffffffffffffffffff168173ffffffffffffffffffffffffffffffffffffffff16036106d8576040517f08c379a00000000000000000000000000000000000000000000000000000000081526004016106cf90610f21565b60405180910390fd5b600460008273ffffffffffffffffffffffffffffffffffffffff1673ffffffffffffffffffffffffffffffffffffffff16815260200190815260200160002060000160009054906101000a900460ff16610767576040517f08c379a000000000000000000000000000000000000000000000000000000000815260040161075e90610ff9565b60405180910390fd5b6000600460008373ffffffffffffffffffffffffffffffffffffffff1673ffffffffffffffffffffffffffffffffffffffff168152602001908152602001600020600101549050600381815481106107c2576107c1610ce9565b5b9060005260206000200160006101000a81549073ffffffffffffffffffffffffffffffffffffffff0219169055600460008373ffffffffffffffffffffffffffffffffffffffff1673ffffffffffffffffffffffffffffffffffffffff168152602001908152602001600020600080820160006101000a81549060ff0219169055600182016000905550508173ffffffffffffffffffffffffffffffffffffffff167fae563681ccc696fae58fe830f401bc9c043a43ddb9f7c2830b32c3c70d9966e760405160405180910390a25050565b60008060009054906101000a900473ffffffffffffffffffffffffffffffffffffffff16905090565b60025481565b6108cb610949565b600073ffffffffffffffffffffffffffffffffffffffff168173ffffffffffffffffffffffffffffffffffffffff160361093d5760006040517f1e4fbdf70000000000000000000000000000000000000000000000000000000081526004016109349190610be5565b60405180910390fd5b610946816109ed565b50565b610951610ab1565b73ffffffffffffffffffffffffffffffffffffffff1661096f610894565b73ffffffffffffffffffffffffffffffffffffffff16146109ce57610992610ab1565b6040517f118cdaa70000000000000000000000000000000000000000000000000000000081526004016109c59190610be5565b60405180910390fd5b565b600081670de0b6b3a76400006109e69190611048565b9050919050565b60008060009054906101000a900473ffffffffffffffffffffffffffffffffffffffff169050816000806101000a81548173ffffffffffffffffffffffffffffffffffffffff021916908373ffffffffffffffffffffffffffffffffffffffff1602179055508173ffffffffffffffffffffffffffffffffffffffff168173ffffffffffffffffffffffffffffffffffffffff167f8be0079c531659141344cd1fd0a4f28419497f9722a3daafe3b4186f6b6457e060405160405180910390a35050565b600033905090565b600080fd5b6000819050919050565b610ad181610abe565b8114610adc57600080fd5b50565b600081359050610aee81610ac8565b92915050565b600060208284031215610b0a57610b09610ab9565b5b6000610b1884828501610adf565b91505092915050565b610b2a81610abe565b82525050565b6000602082019050610b456000830184610b21565b92915050565b600073ffffffffffffffffffffffffffffffffffffffff82169050919050565b6000610b7682610b4b565b9050919050565b610b8681610b6b565b8114610b9157600080fd5b50565b600081359050610ba381610b7d565b92915050565b600060208284031215610bbf57610bbe610ab9565b5b6000610bcd84828501610b94565b91505092915050565b610bdf81610b6b565b82525050565b6000602082019050610bfa6000830184610bd6565b92915050565b600082825260208201905092915050565b7f496e76616c696420657468207072696365000000000000000000000000000000600082015250565b6000610c47601183610c00565b9150610c5282610c11565b602082019050919050565b60006020820190508181036000830152610c7681610c3a565b9050919050565b7f496e76616c69642077656920726174696f000000000000000000000000000000600082015250565b6000610cb3601183610c00565b9150610cbe82610c7d565b602082019050919050565b60006020820190508181036000830152610ce281610ca6565b9050919050565b7f4e487b7100000000000000000000000000000000000000000000000000000000600052603260045260246000fd5b7f4e487b7100000000000000000000000000000000000000000000000000000000600052601160045260246000fd5b6000610d5282610abe565b91507fffffffffffffffffffffffffffffffffffffffffffffffffffffffffffffffff8203610d8457610d83610d18565b5b600182019050919050565b600081549050919050565b600082825260208201905092915050565b60008190508160005260206000209050919050565b610dc981610b6b565b82525050565b6000610ddb8383610dc0565b60208301905092915050565b60008160001c9050919050565b600073ffffffffffffffffffffffffffffffffffffffff82169050919050565b6000610e27610e2283610de7565b610df4565b9050919050565b6000610e3a8254610e14565b9050919050565b6000600182019050919050565b6000610e5982610d8f565b610e638185610d9a565b9350610e6e83610dab565b8060005b83811015610ea657610e8382610e2e565b610e8d8882610dcf565b9750610e9883610e41565b925050600181019050610e72565b5085935050505092915050565b60006020820190508181036000830152610ecd8184610e4e565b905092915050565b7f496e76616c696420737562736372696265722061646472657373000000000000600082015250565b6000610f0b601a83610c00565b9150610f1682610ed5565b602082019050919050565b60006020820190508181036000830152610f3a81610efe565b9050919050565b7f416c726561647920737562736372696265640000000000000000000000000000600082015250565b6000610f77601283610c00565b9150610f8282610f41565b602082019050919050565b60006020820190508181036000830152610fa681610f6a565b9050919050565b7f4e6f742073756273637269626564207965740000000000000000000000000000600082015250565b6000610fe3601283610c00565b9150610fee82610fad565b602082019050919050565b6000602082019050818103600083015261101281610fd6565b9050919050565b7f4e487b7100000000000000000000000000000000000000000000000000000000600052601260045260246000fd5b600061105382610abe565b915061105e83610abe565b92508261106e5761106d611019565b5b82820490509291505056fea26469706673582212200d8c7aacd90cb881dc6b31d6a74a46f7071cea5e24e556438df0aabd4162201164736f6c63430008140033",
  "linkReferences": {},
  "deployedLinkReferences": {}
}